:100000007CEF11F068961200046ED8CF05F0E0CFB7
:1000100006F00001E9CF0CF0EACF07F0E1CF08F0DD
:10002000E2CF09F0D9CF0AF0DACF0BF0F3CF12F01C
:10003000F4CF13F0FACF14F0F5CF15F0F6CF16F099
:10004000F7CF17F000C00EF001C00FF002C010F0A3
:1000500003C011F0A0AA30EF00F0A1BA9DEF07F0A5
:100060000EC000F00FC001F010C002F011C003F08C
:100070000CC0E9FF07C0EAFF078E08C0E1FF09C016
:10008000E2FF0AC0D9FF0BC0DAFF12C0F3FF13C0B2
:10009000F4FF14C0FAFF15C0F5FF16C0F6FF17C035
:1000A000F7FF045006C0E0FF05C0D8FF1000F76A54
:1000B000BE0FF66E000EF7220900F5501200000385
:1000C00002FFFFFFFFFFFFFFFFFFFFFFFFFFF76ADA
:1000D000DE0FF66E000EF7220900F550120000FF49
:1000E00002FFFFFFFFFFFFFFFFFFFFFFFFFFF76ABA
:1000F000FE0FF66E000EF7220900F55012004000C8
:100100000B004000000000000000000000000000A4
:100110000000000000000000000000000000F76A7E
:100120002E0FF66E010EF7220900F5501200400066
:10013000000040000000000000000000000000007F
:100140000000000000000000000000000000F76A4E
:100150005E0FF66E010EF7220900F550120009023B
:100160004300020100809609040000010202010020
:1001700005240010010424020205240600010524C0
:10018000010001070581030B00FA09040100020ABE
:10019000000000070502024000010705820240003E
:1001A0000100F76AB20FF66E010EF7220900F55052
:1001B00012000200F76AC40FF66E010EF722090062
:1001C000F550120012171B20FFFFFFFFF76ADC0F2C
:1001D000F66E010EF7220900F5501200120110010F
:1001E0000200004003040160000101020001F76AFF
:1001F000FE0FF66E010EF7220900F55012000403FF
:100200000904080343004300530020034300430054
:1002100053002000550053004200200074006F007E
:10022000200055004100520054006D92699468A46A
:1002300002D06894FCD7A9EF07F0400E0401016FCB
:10024000040E0001CB6F180ECBC003F4E8CF02F40C
:10025000880E0401006F046B040E076F580E066FC2
:100260000001120070A002D0E8DF7090689AB0EF31
:1002700007F06A6A6892B5EF07F0D791D6BFD781C9
:10028000D69FD651100803E2000E016E16D0D7A1FA
:100290000BD0036AD6510BDFFF0802E1000E01D03C
:1002A000010E016E0AD009D0036AD65110DFFF0893
:1002B00002E1000E01D0010E016E1200DB51DD03E0
:1002C000F3CF01F0F4CF00F0DE03F3500026DC5151
:1002D000DD03F3500020026E1200036AD551700F47
:1002E000E96E0F0E0320EA6EEF6AD5C0D6F0C5DFC7
:1002F000015222E0DC6BD5C0DBF0DE6B080EDD6F57
:10030000DDDF01C0E9FF040E0224EA6EEF6ADC6B58
:10031000D5C0DBF0DE6B080EDD6FD0DF02C0D7F09A
:1003200001C0D6F0040ED627000ED723D6C0E9FFB1
:10033000040ED725EA6EEF6A1200010ED46FD45175
:100340000F0805E3D4C0D5F0C8DFD42BF8D71200CE
:10035000CE6B010ECD6FC20ECC6FCB6BEA6A3A0E3C
:10036000E96EE26ACB0EE16E040E016EE6CFEEFF9F
:10037000012EFCD7CB6BEA6A3E0EE96EE26ACB0E29
:10038000E16EE6CFEEFFCB6BEA6A3F0EE96EE26A02
:10039000CB0EE16EE6CFEEFF080ECB6FEA6A400EA1
:1003A000E96EE26ACB0EE16EE6CFEEFF836B1A9246
:1003B000426A416A826B2D90846B1200376A366AFA
:1003C000CA6BCA5101080AE3036ACA51380FE96EC1
:1003D000000E0320EA6EEF6ACA2BF3D7B9DF276A53
:1003E000010E286E266A12006A6A686A9F0E6B6E9A
:1003F0003D0E696E6E6AA1DFE1DF160E706E68A6B3
:1004000002D000DEFCD76D9818DF030E316EBAEF14
:1004100007F0698468986D82BFEF07F0689CC4EFAD
:1004200007F0CFC032F0120032681200CD6B3650A8
:1004300037102DE0CD513F082AE3295005E0020A8C
:1004400009E0010A0DE011D035C003F034507FDE21
:10045000CE6F0BD035C003F03450C9DECE6F05D05F
:1004600035C003F03450B2DECE6F342AD8B4352A0A
:100470003650D8B437063606CD51CD2B580FE96E1D
:10048000040EEA6ED8B0EA2ACEC0EFFFD0D73650BD
:10049000371004E1CD51400801E0266ACDC0CFF00D
:1004A000C0DF1200356A346A296A04011B51010A4F
:1004B000000107E0030A0BE0010A0DE0220A22E036
:1004C0003AD0376A120E366E030E296E36D0376A6E
:1004D000430E366E32D0020E296E036A04011A51A1
:1004E0002A0FE96E000E0320EA6E356AEFCF34F072
:1004F00035C003F0345000017ADE036A366E03C063
:1005000037F01BD0036A04011A51000153DE036A5D
:10051000346E03C035F0343C02D035520AE035C0A9
:1005200003F0345014DE036A366E03C037F005D092
:1005300002D07ADF11D078DF0FD004011F5308E119
:10054000375203E136501E5D03E2376A1EC436F0AF
:10055000010E266E00016ADFD4EF03F0CC5304E1F4
:10056000040E316EEADECBD0050E316E040ECF6F75
:10057000980ECE6F010ECD6FCD510F08D8A0BFD011
:10058000CDC0D5F0AADED06B036ACD51A0DDFF0847
:100590005BE0040ED06FD890CD35036AC0DD090052
:1005A000F5CF03F0D16F03C0D2F0DC6BCDC0DBF030
:1005B000DE6B080EDD6F82DE01C0D4F0010E012477
:1005C000016E000E0220036E01C0E9FF040E032439
:1005D000EA6ED1C0EFFFDC6BCDC0DBF0DE6B080E46
:1005E000DD6F6CDE01C0D4F0020E0124016E000E3E
:1005F0000220036E01C0E9FF040E0324EA6ECFC09F
:10060000ECFFED52CEC0EFFFD890CD35036A87DD09
:100610000900F5CF03F0CE270350CF23880ED36F08
:10062000D2A101D0D381D2A301D0D383DC6BCDC0C2
:10063000DBF0DE6B080EDD6F41DE01C0E9FF040E6A
:100640000224EA6ED3C0EFFF036ACD5130DDFF080C
:1006500040E0D083DC6BCDC0DBF0DE6B080EDD6FDD
:100660002DDE02C0D5F001C0D4F0040ED427000E58
:10067000D523020ED425016E000ED521036E01C0D4
:10068000E9FF040E0324EA6ECFC0ECFFED52CEC0AA
:10069000EFFFD890CD35036A2ADD0900F5CF03F0CE
:1006A000CE270350CF23DC6BCDC0DBF0DE6B080E12
:1006B000DD6F04DE02C0D5F001C0D4F0040ED427F3
:1006C000000ED523D4C0E9FF040ED525EA6E400EF6
:1006D000EF6ED051060802E10E0ED06F036ACD51C5
:1006E000E6DC010801E0D089036ACD51700FE96EA4
:1006F0000F0E0320EA6ED0C0EFFFCD2B3DD7CEEF1B
:1007000003F004011951000A00010DE0010A14E090
:10071000020A1FE0060A29E0030A2EE00E0A2EE074
:10072000010A32E040D028C058F40401596B020E8F
:100730000001CF6F76DE38D004011A2D07D0010EEC
:1007400028160001CF6B6DDE03D0040100016CDEC2
:100750002BD004011A2D06D028820001CF6B61DE58
:1007600003D00401000160DE1FD0020E266E1AC401
:1007700033F0CF6B56DE18D095D616D027C058F47C
:10078000010ECF6F4EDE10D004011A51010809E3AB
:100790001AC427F01AC4CCF00001E0D6CF6B41DEBA
:1007A0000401000101D040DE3BEF05F027C0CCF092
:1007B00004011951000A000105E00A0A0BE0010AD0
:1007C00026E037D00401586B596B020E0001CF6F41
:1007D00028DE30D0CC5319E0010ECC5D036AE1DC99
:1007E000016E04011C5DD8A002D000010ED0036A86
:1007F0001C51380FE96E000E0320EA6EEFCF58F45B
:10080000010E0001CF6F0DDE01D00EDE13D0CC53F0
:100810000EE0036A04011C51380FE96E000E03203C
:10082000EA6E1AC4EFFF0001CF6BFBDD01D0FCDDE7
:1008300001D0FADD3BEF05F0CD91CCBFCD81CC9F4F
:10084000CDA117D0DC6BCCC0DBF0DE6B080EDD6F0A
:1008500035DD02C0CFF001C0CEF0040ECE27000E71
:10086000CF23CEC0E9FF040ECF25EA6E880EEF6ECF
:100870000DD0DC6BCCC0DBF0DE6B080EDD6F1EDD57
:1008800001C0E9FF040E0224EA6EEF6ABCEF04F037
:10089000CD91CCBFCD81CC9FCDA117D0DC6BCCC08E
:1008A000DBF0DE6B080EDD6F09DD02C0CFF001C0AA
:1008B000CEF0040ECE27000ECF23CEC0E9FF040EEB
:1008C000CF25EA6E840EEF6E0ED0DC6BCCC0DBF071
:1008D000DE6B080EDD6FF2DC01C0E9FF040E0224BE
:1008E000EA6E840EEF6EC2EF04F0CD91CCBFCD81E5
:1008F000CC9FCDA117D0DC6BCCC0DBF0DE6B080E3B
:10090000DD6FDCDC02C0D0F001C0CFF0040ECF27D9
:10091000000ED023CFC0E9FF040ED025EA6EEFCF42
:10092000CEF00ED0DC6BCCC0DBF0DE6B080EDD6FE2
:10093000C5DC01C0E9FF040E0224EA6EEFCFCEF061
:10094000CEAF02D0CEB502D0000E01D0010E016EA6
:10095000CCEF04F01CC4D6F090DC015228E0040176
:100960001951010A000105E0020A09E0030A0DE03D
:100970001DD01CC4CCF060D7CF6B53DD18D01CC485
:10098000CCF086D7CF6B4DDD12D00401586B596B7C
:100990001CC4CCF00001A9D7015204E0010E0401EF
:1009A000586F0001020ECF6F3CDD01D03DDD3BEF03
:1009B00005F0FE0E326E120004011C2D01D002D093
:1009C0001C533FE11FC4CDF01EC4CCF01951000AE6
:1009D00000010BE0010A0DE0210A0FE0010A12E01C
:1009E000030A21E0010A24E02AD0010E846FE1DF2E
:1009F00027D0CCC0CFF015DD23D0020E846F1A8231
:100A0000D8DF1ED0040EEA6E580EE96EE26A3A0E86
:100A1000E16E070E016EE6CFEEFF012EFCD7070E4A
:100A2000CF6FFFDC0DD01AC483F0CF6BFADC08D097
:100A30001AC442F01BC441F0CF6BF3DC01D0F4DCEC
:100A4000040100013BEF05F0266A040118517F0BF9
:100A5000000A000107E0010A07E0030A07E0230A91
:100A600007E008D04ED607D0A1D605D073D703D063
:100A7000A3D701D0D9DC53EF07F0DC6BCDC0DBF09E
:100A8000DE6B080EDD6F1ADC01C0E9FF040E0224E4
:100A9000EA6EEFCFCFF0CE51020806E1CFAD02D023
:100AA000CE6B02D0010ECE6FCE5103081AE1840E38
:100AB000CF6FDC6BCDC0DBF0DE6B080EDD6F5EEC64
:100AC00001F002C0D3F001C0D2F0040ED227000E14
:100AD000D323D2C0E9FF040ED325EA6E840EEF6E55
:100AE00007D0CE2D03D0C80ECF6F02D0880ECF6FA7
:100AF000D890CD35036A8FEC00F00900F5CF03F0F4
:100B0000D06F03C0D1F0DC6BCDC0DBF0DE6B080E24
:100B1000DD6F5EEC01F001C0D2F0010E0124016E28
:100B2000000E0220036E01C0E9FF040E0324EA6EEA
:100B3000D0C0EFFFD1A101D0CF81D1A301D0CF830D
:100B4000DC6BCDC0DBF0DE6B080EDD6F5EEC01F020
:100B500001C0E9FF040E0224EA6ECFC0EFFF1200CD
:100B6000036ADA51700FE96E0F0E0320EA6EEF523E
:100B700019E0DC6BDAC0DBF0DE6B080EDD6F5EECDB
:100B800001F002C0DCF001C0DBF0040EDB27000E38
:100B9000DC23DBC0E9FF040EDC25EA6EEFCFDDF0DD
:100BA000DDAF02D0000E01D0010E016E1200D5C0E3
:100BB000DAF0D6DF0152D8B47DD0DC6BD5C0DBF0E3
:100BC000DE6B080EDD6F5EEC01F002C0DBF001C0F1
:100BD000DAF0040EDA27000EDB23010EDA25016EAF
:100BE000000EDB21036E01C0E9FF040E0324EA6E50
:100BF000D6C0EFFFD85102081EE1DC6BD5C0DBF098
:100C0000DE6B080EDD6F5EEC01F002C0DBF001C0B0
:100C1000DAF0040EDA27000EDB23DAC0E9FF040E57
:100C2000DB25EA6EEFCFD9F0D9AD02D0D86B02D078
:100C3000010ED86F18D0D851040815E1DC6BD5C06F
:100C4000DBF0DE6B080EDD6F5EEC01F001C0E9FF4A
:100C5000040E0224EA6EEFCFD9F0D9AD03D0010E15
:100C6000D86F01D0D86BD82D03D0C80ED96F02D061
:100C7000880ED96FD7A101D0D981D7A301D0D9834C
:100C8000DC6BD5C0DBF0DE6B080EDD6F5EEC01F0D7
:100C900002C0DBF001C0DAF0040EDA27000EDB231D
:100CA000DAC0E9FF040EDB25EA6ED9C0EFFF010EC2
:100CB000016E02D0000E016E12008451010A03E0A1
:100CC000030A06E017D0CF6B11EC02F0846B13D04F
:100CD000EA6A3A0EE96E040EE26E180EE16E070E35
:100CE000016EE6CFEEFF012EFCD7846BCF6B11ECCB
:100CF00002F001D0846BB0EF06F0DC6BCDC0DBF00E
:100D0000DE6B080EDD6F5EEC01F002C0CFF001C0BB
:100D1000CEF0010E0124016E000E0220036E01C010
:100D2000E9FF040E0324EA6E036AEFCF01F003C06B
:100D300002F0A6EF06F02D90020ECD6FCE6F9DDE75
:100D400012002D802F6A020ECD6FD7D701C02EF072
:100D50002E5201E1F0DFB5EF06F0CC5302E1ADD742
:100D600004D0CC51020801E1ECD71200CDC06EFFD7
:100D7000CD5303E0040E316E02D0020E316EC6EF89
:100D800006F0276A266A33C0CDF0F0D732EF07F0BD
:100D9000CDC0DAF0E5DE015243E0DC6BCDC0DBF024
:100DA000DE6B080EDD6F5EEC01F002C0D6F001C014
:100DB000D5F0040ED527000ED623020ED525016EE0
:100DC000000ED621036E01C0E9FF040E0324EA6E73
:100DD000ECCFD4F0ED52EFCFD3F0D4C0EAFFD3C0C4
:100DE000E9FFCFC0E2FFCEC0E1FFD1C002F0D0C02A
:100DF00001F0015202E0022A02D0025206E0E6CFE0
:100E0000EEFF012EFCD7022EFAD7CDC0D5F0D1C00F
:100E1000D7F0D0C0D6F0D2C0D8F0C9DE015002D091
:100E2000000E016E120082530EE0020ECD6FCF6BEA
:100E3000430ECE6FD16B82C0D0F0020ED26FA8DF0E
:100E4000015201E0826B1200EEDF37EF07F0CC5366
:100E50000AE1262C03D016EC02F004D0265002083A
:100E6000D8B48FD704D0CC51020801E1EDD71200DD
:100E70003030CA6FCA33CA331F0ECA17305241E12D
:100E8000040100513C0B0001CB6F430E040100171D
:100E90000001CB5134081EE104010451800B01E034
:100EA000046B0001D1D56D98323C05D0CD6B030E9B
:100EB000CE6FE3DD0ED0CD6B020ECE6FDEDD325095
:100EC000FE0807E0D56BD76B32C0D6F0040ED86FA2
:100ED0006EDE16D0CB51040813E1CC6B3EDFCD6B38
:100EE000020ECE6FCADD3250FE080AE0323C01D05D
:100EF00007D0D56BD76B32C0D6F0010ED86F57DE56
:100F00001AD0305004080EE13268CC6BA0DF323CBE
:100F100001D007D0D56BD76B32C0D6F0020ED86F98
:100F200046DE09D030B404D0CAC0CCF016DF03D0FE
:100F3000CAC0CCF08CDFCEEF07F0A19A3152D8B402
:100F400033D06852D8B430D068A403D069B415EF58
:100F500001F06DB229D068AA03D069BA32EF01F06E
:100F600068A203D069B239EF01F068A003D069B07C
:100F7000F4EF01F068A803D069B809EF02F068AC9B
:100F800003D069BC0EEF02F0C96B68A608D069A651
:100F900006D06CCF30F002EC00F06AD701D004D05C
:100FA000C951C92B0308F1E230EF00F00A54544D47
:100FB0005342202D204E6F7765456E6572676965D7
:100FC0002E6F72670A000A54544D5342202D204E52
:100FD0006F7765456E65726769652E6F72670A0087
:100FE0000A64617900000A6D6F6E746800000A7906
:100FF000656172000A686F7572000A6D696E0000A3
:101000000A73656B0000222564223A2225332E31B3
:1010100066220000EA6AB60EE96EEF500EE00F0E8F
:10102000016E006A002EFED7012EFBD78F0E006ED8
:10103000002EFED70000EF2EF2D7120093988A8878
:10104000040E986FFA0EB66FE5DF982FFBD79398D2
:101050008A9812006D926D6A696A080E6F6E9450DC
:101060003009946E316A196AF2BE198EF29EDEEC76
:1010700001F019BEF28E3EEF08F0ECD7B1EF11F09F
:10108000196AF2BE198EF29EDEEC01F019BEF28EE4
:101090006D926D6A6D8C00D000D000006D9C140EB6
:1010A0006F6E696A6D86010E316E5AEF08F06DB68B
:1010B00001D0E6D7312C0BD06DBA09D0686A696AC5
:1010C000A08AC00EF212110E696E020E316EB3EFDD
:1010D00011F02750016EBFEF08F00900F5520DE046
:1010E000F6CF9BF0F7CF9CF0F5509EA8FED7AD6EE3
:1010F0009BC0F6FF9CC0F7FFF0D7E2EF08F0B79176
:10110000A0BAB781A09A82513E0802E23E0E826FD9
:101110008251822B036A430FE96E000E0320EA6EB0
:10112000B6C0EFFFB7A101D0A08A9AEF08F0B5C012
:10113000B6F0E5D7196AF2BE198EF29E74DE19BEBA
:10114000F28EABEF08F03F0ED880825501E1FBD75D
:10115000B4C0B5F0ECD712000900F5520CE0F6CFA0
:101160009BF0F7CF9CF0F5CFB4F0EDDF9BC0F6FF1E
:101170009CC0F7FFF1D71200010E986FAAD701C0EB
:1011800099F09A6B1AB29A2B995303E096948D9426
:1011900002D096948D849A5303E096948D9402D055
:1011A00096948D8483A103D094908B9002D09490D8
:1011B0008B809A530CE095530AE1AC0EF66E0F0E3D
:1011C000F76E8BD7C60EF66E0F0EF76EC5DF98C0A2
:1011D00093F099C094F09AC095F0B5EF11F02DB04E
:1011E00001D0FDD72F502F2AA30FE96E040EEA6E0F
:1011F000D8B0EA2AEFCF99F02E502F5C07E3196A96
:10120000F2BE198EF29E97DD19BEF28E99C001F0E2
:1012100012008751660805E195908C806E0E876FED
:1012200004D095908C90660E876FE1EF11F0969444
:101230008D94020E986F960EB66FECDE982FFBD74A
:1012400096948D84020E986F960EB66FE3DE982FFB
:10125000FBD796948D94020E986F960EB66FDADED9
:10126000982FFBD796948D8412008851660805E16B
:1012700095928C826E0E886F04D095928C92660E39
:10128000886FE6EF11F095968C8695948C84640EA9
:10129000B66FC0DE95968C9695948C944FEF12F0B5
:1012A00095968C8695988C88640EB66FB3DE95966D
:1012B0008C9695988C984FEF12F0959C8C8C959EFF
:1012C0008C8E640EB66FA6DE959C8C9C959E8C9E33
:1012D0004FEF12F0959C8C8C959A8C8A640EB66FA9
:1012E00099DE959C8C9C959A8C9A4FEF12F0B55193
:1012F000016AB45D03E2B4C000F00CD0006A080ECD
:10130000B66FB4370036B551005CD8B0006E013608
:10131000B62FF7D7120099C0B4F00A0EB56FE7DF09
:101320000150100DF3CF9AF099C0B4F00A0EB56FCA
:10133000DEDF00509A25016E1200080E016E110EBC
:10134000006E002EFED78A929392110E006E002E30
:10135000FED79E378A90D8B09380D8A0939093827E
:1013600081A2FED7012EEBD7110E006E002EFED704
:101370008A92939200009380110E006E002EFED789
:10138000110E006E002EFED7938281A2FED7016A55
:10139000110E006E002EFED781B001808A929392CA
:1013A0008A90939012009D6B9380110E006E002E18
:1013B000FED79382110E006E002EFED78A90939076
:1013C000110E006E002EFED78A929392D00E9E6F61
:1013D000B4DF9AC09EF0B1DF9BC09EF0AEDF939069
:1013E0000000938281A2FED7110E006E002EFED760
:1013F00000D000009380110E006E002EFED7938067
:10140000110E006E002EFED79382110E006E002E7C
:10141000FED78A909390110E006E002EFED78A920E
:101420009392D00E9E6F89DF01509C9101B09C81F8
:101430009CB103D09D5104081DE39380110E006EF2
:10144000002EFED79382110E006E002EFED781A2D1
:10145000FED78A909390110E006E002EFED78A92CE
:101460009392D00E9E6F69DF01509C9101B09C81D8
:101470009D2BDED71200E00EF66E0F0EF76E6CDEBF
:10148000AEDE01C098F098C099F045DF01C099F038
:10149000040E9A6F01C09BF086DFE60EF66E0F0E0B
:1014A000F76E5ADE9CDE01C098F098C099F033DFE9
:1014B00001C099F0050E9A6F01C09BF074DFEE0E2B
:1014C000F66E0F0EF76E48DE8ADE01C098F098C007
:1014D00099F021DF01C099F0060E9A6F01C09BF0D0
:1014E00062DFF40EF66E0F0EF76E36DE78DE01C0A8
:1014F00098F098C099F00FDF01C099F0020E9A6F32
:1015000001C09BF050DFFA0EF66E0F0EF76E24DE70
:1015100066DE01C098F098C099F0FDDE01C099F038
:10152000010E9A6F01C09BF03EDF000EF66E100EAA
:10153000F76E12DE54DE01C098F098C099F0EBDE31
:1015400001C099F09A6B01C09BF02DDFFAEF11F00A
:10155000080E9B6F00C09CF09380110E006E002E51
:10156000FED7938281A2FED781B0D88081A0D89087
:101570000136110E006E002EFED793928A929B2F99
:10158000EBD79380110E006E002EFED78A909C51EF
:10159000D8A493900000938281A2FED7110E006E12
:1015A000002EFED78A929392110E006E002EFED767
:1015B0008A9093900FEF0BF09380110E006E002E27
:1015C000FED79382110E006E002EFED781A2FED7A9
:1015D0008A909390110E006E002EFED78A929392FD
:1015E000D00E9E6FAADE98C09EF0A7DE9380110EEB
:1015F000006E002EFED79382110E006E002EFED7D5
:1016000081A2FED78A909390110E006E002EFED715
:101610008A929392D10E9E6F90DE006A99D701C094
:1016200099F093900000938281A2FED7110E006E74
:10163000002EFED700D000009380110E006E002E09
:10164000FED799C001F012009939006E0F0E0016F6
:1016500000500A0DF3CF9AF099510F0B9A25016EA5
:101660001200986BA9DF01C098F001C099F0ECDF7F
:1016700001C08DF0010E986F9FDF01C098F001C08E
:1016800099F0E2DF01C08EF0020E986F95DF01C085
:1016900098F001C099F0D8DF01C08FF0040E986F68
:1016A0008BDF01C098F001C099F0CEDF01C090F04F
:1016B000050E986F81DF01C098F001C099F0C4DF7A
:1016C00001C091F0060E986F77DF01C098F001C05D
:1016D00099F0BADF01C092F0FFEF11F0200EA8A937
:1016E000300EA96FA7C000F0A7AF08D0001E002AD7
:1016F00000C0A7F02D0EA96FA88FA8810150A7C028
:10170000B4F0640EB56FF3DD00C0A7F0300E012415
:10171000AA6FA7C0B4F00A0EB56FE9DD300E002441
:10172000AC6F300E0124AB6FA9C000F0300EAA5D83
:1017300004E0A883A8BFA88512D0A9C0AAF0200EF3
:10174000A96F300EAB5D04E0A881A8BFA88307D0C5
:10175000D8A4A88104E1AAC0ABF0200EAA6FA8B556
:1017600005D0A8B306D0A8B107D009D0A9C0B4F05D
:10177000EADCAAC0B4F0E7DCABC0B4F0E4DCACC097
:10178000B4F0E1DC1200010EBC5F0CE3EA6ABC0EAF
:10179000E96EEF5007E0020E006E002EFED700D07B
:1017A000EF2EF9D7120093968A96020EB66FF00EBE
:1017B000BC6FE9DFB62FFBD793968A869F0E006E2B
:1017C000002EFED700D09386B59181B6B581020E6A
:1017D000B66FD40EBC6FD7DFB62FFBD7000EB5B1F6
:1017E000010E016E120093968A96070E006E002E6F
:1017F000FED700D0BB5302E093968A86640EBC6F7E
:10180000C2DF93968A861200B96BB951070810E3BC
:10181000B8C0BAF0B951016E04E0D890BA33012EC5
:10182000FCD7010EBA17BAC0BBF0DDDFB92BEDD77C
:10183000690EBC6FA8DF120093968A96070E006EA1
:10184000002EFED700D09386130E006E002EFED71A
:1018500000D09386B99181B6B981000EB9B1010E5D
:10186000016E1200010EA96FAA6FAB6BAC95A86B4D
:10187000A85107080AE3036AA8511C0FE96E000E7D
:101880000320EA6EEF6AA82BF3D78DDFAC9301B08B
:10189000AC83ACB302D01AA004D01B6A000E016E58
:1018A00075D0F00EB86FB0DFA86BA76BC5DF015223
:1018B00002E0020EA76F780EBC6F65DFBDDF01523C
:1018C00001E0A781780EBC6F5EDFA751030802E13B
:1018D0004DD049D0A75308E0AC91D890A731016E04
:1018E000E8A001D0AC8119D01B50AA5D0DE2AC91EB
:1018F000036AA8511C0FE96E000E0320EA6EEF5038
:10190000A91501E0AC8105D0AC911B50AA5D01E1A5
:10191000AC81ACB102D0AAC0ABF0ACA10BD0036AD1
:10192000A8511C0FE96E000E0320EA6EEF50A911BA
:10193000EF6E0BD0036AA8511C0FE96E000E032056
:10194000EA6EA951FF0AEF14EF6E000EACB1010E62
:10195000AD6FBB6F48DFAA2BD890A937A95303E11D
:10196000A82B010EA96FA85107089FE2AA514008B1
:1019700002E31B6A07D0ABC01BF01A901B5201E1B7
:101980001A80AC85000EACB5010E016E12001B6A08
:101990001A9068DF01502FEF11F0B551550816E18C
:1019A000550EB86F31DFB66BB65107080EE3036A08
:1019B000B6511C0FE96E000E0320EA6EEFCFB7F0B0
:1019C000B7C0B8F021DFB62BEFD703D0CC0EB86F7D
:1019D0001BDF1200B86BB76BB751070813E32CDF9E
:1019E00001520BE0010E006EB751016E04E0D89079
:1019F0000036012EFCD70050B813780EBC6FC3DE42
:101A0000B72BEAD7B8C001F04FEF0DF0016A026AB8
:101A1000006A036ABA5102E1B95118E0100EBB6FB7
:101A2000D890B737B83700360336BA51035C02E1B5
:101A3000B951005C07E3B951005ED8A00306BA5162
:101A4000035ED88001360236BB2FEAD785EF0DF052
:101A5000AADE550EB56FA1DF93968A86440EB86F45
:101A6000D3DE030EB56FFA0EB66F0AEC08F0B52F91
:101A7000FAD799DE550EB56F90DFBE0EB86FC4DE93
:101A8000A76BA751080813E3036AA751AC0F016EB7
:101A9000000E032201C0B5F003C0B6F09BD7B6C05C
:101AA000EAFFB5C0E9FF01C0EFFFA72BEAD7A96B9A
:101AB000A86BADC0A9F0A86B036AAC51A813035082
:101AC000A9131C5010082AE1D890A933A833A8C044
:101AD000A9F0A86B400EA85F000EA95BB251B35DE0
:101AE000AA6FAB6BAAC0ABF0AA6BB35312E0036A48
:101AF000B3C0B5F003C0B6F0ABC0B8F0AAC0B7F041
:101B000003C0BAF0B3C0B9F081D702C0ABF001C0D6
:101B1000AAF0A851AA27A951AB230ED0A9C0ABF0B7
:101B2000A8C0AAF0AA37AB37AA37AB37AA37AB376A
:101B3000AA37AB37F00EAA17AAC001F0ABC002F06B
:101B4000120025C0EAFF24C0E9FFB4C0EFFFE92A74
:101B5000D8B4EA2AEF6A242AD8B4252A1200200E23
:101B6000AFA9300EB06FAEC000F0AEAF08D0001E0F
:101B7000002A00C0AEF02D0EB06FAF8FAF810150C4
:101B8000AEC0B4F0640EB56F77EC09F000C0AEF0F3
:101B9000300E0124B16FAEC0B4F00A0EB56F77EC11
:101BA00009F0300E0024B36F300E0124B26FB0C0C4
:101BB00000F0300EB15D04E0AF83AFBFAF8512D04F
:101BC000B0C0B1F0200EB06F300EB25D04E0AF8156
:101BD000AFBFAF8307D0D8A4AF8104E1B1C0B2F0EA
:101BE000200EB16FAFB505D0AFB306D0AFB107D0FF
:101BF00009D0B0C0B4F0A5DFB1C0B4F0A2DFB2C06C
:101C0000B4F09FDFB3C0B4F09CDF83EF0EF0200E82
:101C1000AFA9300EB06FAEC000F0AEAF08D0001E5E
:101C2000002A00C0AEF02D0EB06FAF8FAF81015013
:101C3000AEC0B4F0640EB56F77EC09F000C0AEF042
:101C4000300E0124B16FAEC0B4F00A0EB56F77EC60
:101C500009F0300E0024B36F300E0124B26FB0C013
:101C600000F0300EB15D04E0AF83AFBFAF8512D09E
:101C7000AFB510D0B0C0B1F0AFB304D0300EB25D8C
:101C800004E0AF81AFBFAF8305D0D8A4AF81D8B493
:101C9000B1C0B2F0AFB505D0AFB306D0AFB107D089
:101CA00009D0B0C0B4F04DDFB1C0B4F04ADFB2C06B
:101CB000B4F047DFB3C0B4F044DF8BEF0EF0A851AF
:101CC000AD6FA7C0ABF0AC6B196AF2BE198EF29E75
:101CD000ACC0DCF0ABC0DBF0DE6B640EDD6F5EEC45
:101CE00001F019BEF28E02C0ACF001C0ABF0ACC086
:101CF000ABF0AC6BAAC025F0A9C024F0ADC0AEF02B
:101D0000180EAF6F2CD72E0EB46F1BDFABC0AEF02A
:101D1000010EAF6F7CD73FEF11F08E0E006EA8C0A2
:101D200001F0A7C002F0036A015209E102C001F00C
:101D3000026A080E005E015202E1006A08D0D890E3
:101D400001BE04D0023601360006F9D7019E5DEFD0
:101D50000FF0AB51D8B4A5D0B76FAF51D8B4A1D064
:101D6000B75F05E37F0EB727D8B09BD006D0810EB2
:101D7000B75FD8A096D0D8B494D0B7C000F0016AAD
:101D8000026A036AB66BACC0B5F0B58FADC0B4F0F3
:101D9000AEC0B3F0190EB76FB251B35F0DE2010ED2
:101DA000B45F0AE2B55F08E2B65F06E2B62BB52B78
:101DB000B42BB251B32728D0B151B45F12E2010E57
:101DC000B55F0FE2B65F0DE2B62BB52BB151B4276C
:101DD000B251B32719E3B42B17E1B52B15E1B62B9C
:101DE00013D0B0518009B55F0EE2010EB65F0BE271
:101DF000B62BB0518009B527B151B427E9E3B52B13
:101E0000E7E1B62BE5D70380B72F01D00BD0D890F0
:101E1000B337B437B537B637D89003360236013604
:101E2000B837BAD7B8A106D0D890013202320332FF
:101E3000B83302D0000635E0B8BF1ED0D890B33713
:101E4000B437B537B637B251B35F07E2010EB45FAE
:101E500004E2B55F02E2B65F1AE3B151B45F05E296
:101E6000010EB55F02E2B65F12E3B0518009B55FC3
:101E700003E2010EB65F0BE3032A09E1022A07E140
:101E8000012A05E1002A0DE0013202320332ACC022
:101E9000B7F0B051B71BB7AF02D0018E06D0019E8C
:101EA00004D0006A016A026A036A73EF0FF0D0DDA2
:101EB00002C0A8F001C0A7F030D703C0AAF002C04A
:101EC000A9F001C0A8F000C0A7F003C0AEF002C0A6
:101ED000ADF001C0ACF000C0ABF0B26BB16BB06B59
:101EE000870EAF6F36D740EF11F00900F6CFA8F09C
:101EF000F7CFA9F0F5CFB4F0A3EC08F0A8C0F6FF37
:101F0000A9C0F7FFA72FF1D75FEF11F0B451D8B4F4
:101F100071D0006EB851D8B46DD0002604E3810EA4
:101F2000002668E204D07F0E005E64E363E0B5C083
:101F3000BCF0B951BC1BB58FB98FB751BB03F4CFFF
:101F4000BEF0B651BA03F4CF03F0F3CFBDF0BB033C
:101F5000F350BE27F450BD23000E0322B751BA033D
:101F6000F350BE27F450BD23000E026A0322022262
:101F7000B551BB03F350BD27F4500322000E0222DB
:101F8000B551BA03F3500326F4500222000E016A41
:101F90000122B751B903F350BD27F4500322000EBC
:101FA00002220122B651B903F3500326F450022253
:101FB000000E0122B551B903F3500226F45001225C
:101FC000002A01BE05D0BD370336023601360006B1
:101FD000000EBDAF0AD0032A02220122015005E102
:101FE000025003E1035001E1002ABCBF018EBCAFE7
:101FF000019E04D0006A016A026A036A7BEF10F056
:10200000B451B608B46F036AB5C0B8F0B58FD890B4
:10201000B533B633B7330332023201320032B42F54
:10202000F6D7B8AF0BD0001E011E021E031E002AF9
:10203000D8B4012AD8B4022AD8B4032A8EEF10F0FB
:10204000D8B203D0EA6ABC0EE96E006A016A026A7D
:10205000036ABC6BBD6BBE6BBF6BBB51BA11B911D0
:10206000B8112CE0200EC06FD890B437B537B63712
:10207000B737BC37BD37BE37BF37BB51BF5D08E18F
:10208000BA51BE5D05E1B951BD5D02E1B851BC5D1B
:102090000FE3B851BC5FB951D8A0B93DBD5FBA518B
:1020A000D8A0BA3DBE5FBB51D8A0BB3DBF5FD880B2
:1020B0000036013602360336C02FD6D7BCC0EFFF3C
:1020C000BDC0ECFFBEC0ECFFBFC0ECFF1200E9508A
:1020D000AC6FAB51AE6F19E0AAC0B7F0A9C0B6F0B3
:1020E000A8C0B5F0A7C0B4F0BB6BBA6B200EB96F37
:1020F000820EB86F0BD703C0AAF002C0A9F001C0CE
:10210000A8F000C0A7F0AE2FE7D7AAC0B7F0A9C0CB
:10211000B6F0A8C0B5F0A7C0B4F072D703C0AAF05B
:1021200002C0A9F001C0A8F000C0A7F0AAAF0DD06E
:10213000AC07AC8BA71FA81FA91FAA1FA72BD8B439
:10214000A82BD8B4A92BD8B4AA2B3B0EB36F9A0EE8
:10215000B26FCA0EB16FB06B0A0EAE6FAB51D8B48E
:10216000AC2BD882EA6AA70EE96EAAC0B7F0A9C064
:10217000B6F0A8C0B5F0A7C0B4F0B3C0BBF0B2C011
:10218000BAF0B1C0B9F0B0C0B8F05ADF0150005297
:102190000FE1AB29AE5D0CE0AC510CE00F0BAE5D76
:1021A00001E03BE2ACBF39D0ACBD04D0200E30D052
:1021B000200EAC17ACAB0DD0AC9BAB51D8A4AC0788
:1021C0000050AC6F2D0EB46FA3EC08F0AC51006E54
:1021D000AC6BAB51AE5D0BE10050AC6F2E0EB46F2B
:1021E000A3EC08F0AC51006E200EAC17000E300EC0
:1021F000ACAB0ED0AC9BAB51D8A4AC070050AC6FCD
:102200002D0EB46FA3EC08F0AC51006EAC6B300E29
:10221000002600C0B4F0A3EC08F0D892B3C0B7F029
:10222000B2C0B6F0B1C0B5F0B0C0B4F0BB6BBA6B21
:10223000B96B0A0EB86F04DF03C0B3F002C0B2F08E
:1022400001C0B1F000C0B0F0AE2F8BD76CEF11F031
:10225000A66B7B0EB46FA3EC08F0C7EF0CF0015235
:1022600049E028EC0DF002C099F001C098F099C047
:10227000A8F098C0A7F0AA6B9E0EA96F20D517D61C
:1022800003C09DF002C09CF001C09BF000C09AF01A
:10229000A65304E02C0EB46FA3EC08F0220EB46F2A
:1022A000A3EC08F0A6C0A7F0180EA86F6EEC0BF018
:1022B000090EF66E100EF76E030EA76F16D6020EFD
:1022C000E96E9DC0AAF09CC0A9F09BC0A8F09AC07E
:1022D000A7F0010EAB6FFBD6220EB46FA3EC08F093
:1022E000A62B32EC0CF00152BCE17D0EB46FA3ECD6
:1022F00008F0A66B3BEF12F0F86AD09E078EB88606
:10230000E10EAF6E040EB06EA60EAC6E900EAB6E0C
:10231000256A246A660E876F886FC150C00B0F094B
:10232000C16E070EB46E1A901A901B6A1C6A1D6A61
:102330001E6A1F6A206A216A226A236A2A6A040EB8
:102340002B6E0C0E2C6E856B866B936B946B956B62
:10235000976B1EEC08F096948D8494908B803DEFE3
:1023600008F057EF08F0BCEF08F09EAA08D09EAA2C
:10237000FED7AECF96F096C0B4F0A3EC08F02DA037
:102380008ED0EFEC08F001C096F096516D0A17E080
:10239000030A1AE01D0A1DE0060A1EE0110A1FE0EA
:1023A000080A20E01E0A21E01D0A22E0160A25E0A4
:1023B0000D0A60E0040A62E0080A6BE070D009EFE1
:1023C00009F017EC09F06BD035EF09F017EC09F0C4
:1023D00066D01EEC08F063D043EF09F060D050EFF8
:1023E00009F05DD05DEF09F05AD06AEF09F057D0DF
:1023F0003BEF0AF017EC09F052D031EF0BF090C030
:10240000A7F0180EA86F6EEC0BF02D0EB46FA3ECB6
:1024100008F091C0A7F0180EA86F6EEC0BF02D0E0F
:10242000B46FA3EC08F092C0A7F0180EA86F6EEC82
:102430000BF0200EB46FA3EC08F08FC0A7F0180EBD
:10244000A86F6EEC0BF03A0EB46FA3EC08F08EC0E0
:10245000A7F0180EA86F6EEC0BF03A0EB46FA3EC59
:1024600008F08DC0A7F0180EA86F6EEC0BF017ECFB
:1024700009F015D0EDD617EC09F011D06F0EB46F3E
:10248000A3EC08F06B0EB46FA3EC08F017EC09F0A6
:1024900006D01EEC08F017EC09F0FF0000D061D761
:0224A000030037
:020000040030CA
:0E00000024CE3E1E0087A1000FC00FE00F406F
:00000001FF
;PIC18F4550
;CRC=4E8B  CREATED="25-wrz-17 15:32"
